{
  "_format": "hh-sol-artifact-1",
  "contractName": "CrowdFunding",
  "sourceName": "contracts/CrowdFunding.sol",
  "abi": [
    {
      "anonymous": false,
      "inputs": [
        {
          "indexed": true,
          "internalType": "uint256",
          "name": "campaignId",
          "type": "uint256"
        },
        {
          "indexed": true,
          "internalType": "address",
          "name": "owner",
          "type": "address"
        }
      ],
      "name": "CampaignCreated",
      "type": "event"
    },
    {
      "anonymous": false,
      "inputs": [
        {
          "indexed": true,
          "internalType": "uint256",
          "name": "campaignId",
          "type": "uint256"
        },
        {
          "indexed": true,
          "internalType": "address",
          "name": "donator",
          "type": "address"
        },
        {
          "indexed": false,
          "internalType": "uint256",
          "name": "amount",
          "type": "uint256"
        }
      ],
      "name": "DonationReceived",
      "type": "event"
    },
    {
      "inputs": [
        {
          "internalType": "uint256",
          "name": "",
          "type": "uint256"
        }
      ],
      "name": "campaigns",
      "outputs": [
        {
          "internalType": "address",
          "name": "owner",
          "type": "address"
        },
        {
          "internalType": "string",
          "name": "title",
          "type": "string"
        },
        {
          "internalType": "string",
          "name": "description",
          "type": "string"
        },
        {
          "internalType": "uint256",
          "name": "target",
          "type": "uint256"
        },
        {
          "internalType": "uint256",
          "name": "deadline",
          "type": "uint256"
        },
        {
          "internalType": "uint256",
          "name": "amountCollected",
          "type": "uint256"
        },
        {
          "internalType": "string",
          "name": "image",
          "type": "string"
        },
        {
          "internalType": "uint256",
          "name": "votes",
          "type": "uint256"
        },
        {
          "internalType": "string",
          "name": "category",
          "type": "string"
        }
      ],
      "stateMutability": "view",
      "type": "function"
    },
    {
      "inputs": [
        {
          "internalType": "string",
          "name": "",
          "type": "string"
        }
      ],
      "name": "categories",
      "outputs": [
        {
          "internalType": "uint256",
          "name": "numberOfEntries",
          "type": "uint256"
        },
        {
          "internalType": "string",
          "name": "name",
          "type": "string"
        }
      ],
      "stateMutability": "view",
      "type": "function"
    },
    {
      "inputs": [
        {
          "internalType": "address",
          "name": "_owner",
          "type": "address"
        },
        {
          "internalType": "string",
          "name": "_title",
          "type": "string"
        },
        {
          "internalType": "string",
          "name": "_description",
          "type": "string"
        },
        {
          "internalType": "uint256",
          "name": "_target",
          "type": "uint256"
        },
        {
          "internalType": "uint256",
          "name": "_deadline",
          "type": "uint256"
        },
        {
          "internalType": "string",
          "name": "_image",
          "type": "string"
        },
        {
          "internalType": "string",
          "name": "_category",
          "type": "string"
        }
      ],
      "name": "createCampaign",
      "outputs": [
        {
          "internalType": "uint256",
          "name": "",
          "type": "uint256"
        }
      ],
      "stateMutability": "nonpayable",
      "type": "function"
    },
    {
      "inputs": [
        {
          "internalType": "uint256",
          "name": "_id",
          "type": "uint256"
        }
      ],
      "name": "donateToCampaign",
      "outputs": [],
      "stateMutability": "payable",
      "type": "function"
    },
    {
      "inputs": [],
      "name": "getCampaigns",
      "outputs": [
        {
          "components": [
            {
              "internalType": "address",
              "name": "owner",
              "type": "address"
            },
            {
              "internalType": "string",
              "name": "title",
              "type": "string"
            },
            {
              "internalType": "string",
              "name": "description",
              "type": "string"
            },
            {
              "internalType": "uint256",
              "name": "target",
              "type": "uint256"
            },
            {
              "internalType": "uint256",
              "name": "deadline",
              "type": "uint256"
            },
            {
              "internalType": "uint256",
              "name": "amountCollected",
              "type": "uint256"
            },
            {
              "internalType": "string",
              "name": "image",
              "type": "string"
            },
            {
              "internalType": "uint256",
              "name": "votes",
              "type": "uint256"
            },
            {
              "internalType": "string",
              "name": "category",
              "type": "string"
            },
            {
              "internalType": "address[]",
              "name": "donators",
              "type": "address[]"
            },
            {
              "internalType": "uint256[]",
              "name": "donations",
              "type": "uint256[]"
            }
          ],
          "internalType": "struct CrowdFunding.Campaign[]",
          "name": "",
          "type": "tuple[]"
        }
      ],
      "stateMutability": "view",
      "type": "function"
    },
    {
      "inputs": [],
      "name": "getCategories",
      "outputs": [
        {
          "components": [
            {
              "internalType": "uint256",
              "name": "numberOfEntries",
              "type": "uint256"
            },
            {
              "internalType": "string",
              "name": "name",
              "type": "string"
            },
            {
              "components": [
                {
                  "internalType": "address",
                  "name": "owner",
                  "type": "address"
                },
                {
                  "internalType": "string",
                  "name": "title",
                  "type": "string"
                },
                {
                  "internalType": "string",
                  "name": "description",
                  "type": "string"
                },
                {
                  "internalType": "uint256",
                  "name": "target",
                  "type": "uint256"
                },
                {
                  "internalType": "uint256",
                  "name": "deadline",
                  "type": "uint256"
                },
                {
                  "internalType": "uint256",
                  "name": "amountCollected",
                  "type": "uint256"
                },
                {
                  "internalType": "string",
                  "name": "image",
                  "type": "string"
                },
                {
                  "internalType": "uint256",
                  "name": "votes",
                  "type": "uint256"
                },
                {
                  "internalType": "string",
                  "name": "category",
                  "type": "string"
                },
                {
                  "internalType": "address[]",
                  "name": "donators",
                  "type": "address[]"
                },
                {
                  "internalType": "uint256[]",
                  "name": "donations",
                  "type": "uint256[]"
                }
              ],
              "internalType": "struct CrowdFunding.Campaign[]",
              "name": "campaigns",
              "type": "tuple[]"
            }
          ],
          "internalType": "struct CrowdFunding.Category[]",
          "name": "",
          "type": "tuple[]"
        }
      ],
      "stateMutability": "view",
      "type": "function"
    },
    {
      "inputs": [
        {
          "internalType": "uint256",
          "name": "_id",
          "type": "uint256"
        }
      ],
      "name": "getDonators",
      "outputs": [
        {
          "internalType": "address[]",
          "name": "",
          "type": "address[]"
        },
        {
          "internalType": "uint256[]",
          "name": "",
          "type": "uint256[]"
        }
      ],
      "stateMutability": "view",
      "type": "function"
    },
    {
      "inputs": [],
      "name": "getWinnersByCategory",
      "outputs": [
        {
          "components": [
            {
              "internalType": "string",
              "name": "category",
              "type": "string"
            },
            {
              "internalType": "string",
              "name": "title",
              "type": "string"
            },
            {
              "internalType": "address",
              "name": "owner",
              "type": "address"
            },
            {
              "internalType": "uint256",
              "name": "amountCollected",
              "type": "uint256"
            }
          ],
          "internalType": "struct CrowdFunding.Winner[]",
          "name": "",
          "type": "tuple[]"
        }
      ],
      "stateMutability": "view",
      "type": "function"
    },
    {
      "inputs": [],
      "name": "numberOfCampaigns",
      "outputs": [
        {
          "internalType": "uint256",
          "name": "",
          "type": "uint256"
        }
      ],
      "stateMutability": "view",
      "type": "function"
    },
    {
      "inputs": [
        {
          "internalType": "address",
          "name": "",
          "type": "address"
        }
      ],
      "name": "users",
      "outputs": [
        {
          "internalType": "bool",
          "name": "haveVote",
          "type": "bool"
        }
      ],
      "stateMutability": "view",
      "type": "function"
    }
  ],
  "bytecode": "0x6080604052600060035534801561001557600080fd5b50612469806100256000396000f3fe6080604052600436106100915760003560e01c80634db0412c116100595780634db0412c14610157578063561b29cc14610179578063a6b03633146101a7578063a87430ba146101c9578063dc86efae1461020957600080fd5b806307ca140d146100965780630b9124c2146100bf5780630fa91fa9146100df578063141961bc1461010d57806342a4fda814610142575b600080fd5b3480156100a257600080fd5b506100ac60035481565b6040519081526020015b60405180910390f35b3480156100cb57600080fd5b506100ac6100da366004611b79565b61022b565b3480156100eb57600080fd5b506100ff6100fa366004611c4a565b6104a0565b6040516100b6929190611c63565b34801561011957600080fd5b5061012d610128366004611c4a565b610571565b6040516100b699989796959493929190611d37565b610155610150366004611c4a565b6107e3565b005b34801561016357600080fd5b5061016c6109dc565b6040516100b69190611f60565b34801561018557600080fd5b50610199610194366004611ff1565b611005565b6040516100b692919061202e565b3480156101b357600080fd5b506101bc6110b5565b6040516100b69190612047565b3480156101d557600080fd5b506101f96101e4366004612061565b60026020526000908152604090205460ff1681565b60405190151581526020016100b6565b34801561021557600080fd5b5061021e611506565b6040516100b6919061207c565b60004284116102815760405162461bcd60e51b815260206004820152601e60248201527f446561646c696e65206d75737420626520696e2074686520667574757265000060448201526064015b60405180910390fd5b600354600090815260016020819052604090912080546001600160a01b0319166001600160a01b038b161781559081016102bb8982612195565b50600281016102ca8882612195565b50600381018690556004810185905560006005820155600681016102ee8582612195565b5060006007820155600881016103048482612195565b506000836040516103159190612255565b9081526040519081900360209081019091206002018054600181810183556000928352929091208354600b9092020180546001600160a01b0319166001600160a01b0390921691909117815582918181019061037390840182612271565b5060028181019061038690840182612271565b50600382015481600301556004820154816004015560058201548160050155600682018160060190816103b99190612271565b5060078201548160070155600882018160080190816103d89190612271565b50600982810180546103ed9284019190611a55565b50600a82810180546104029284019190611a55565b5050506000836040516104159190612255565b908152604051908190036020019020805490600061043283612362565b90915550506003546040516001600160a01b038b1691907f633109eec20320eded000fc1e2634211aa7e92ba3f5b15faf6dcdafca05094e490600090a36003805490600061047f83612362565b91905055506001600354610493919061237b565b9998505050505050505050565b60008181526001602090815260409182902060098101805484518185028101850190955280855260609485949293600a01929091849183018282801561050f57602002820191906000526020600020905b81546001600160a01b031681526001909101906020018083116104f1575b505050505091508080548060200260200160405190810160405280929190818152602001828054801561056157602002820191906000526020600020905b81548152602001906001019080831161054d575b5050505050905091509150915091565b6001602081905260009182526040909120805491810180546001600160a01b039093169261059e90612112565b80601f01602080910402602001604051908101604052809291908181526020018280546105ca90612112565b80156106175780601f106105ec57610100808354040283529160200191610617565b820191906000526020600020905b8154815290600101906020018083116105fa57829003601f168201915b50505050509080600201805461062c90612112565b80601f016020809104026020016040519081016040528092919081815260200182805461065890612112565b80156106a55780601f1061067a576101008083540402835291602001916106a5565b820191906000526020600020905b81548152906001019060200180831161068857829003601f168201915b5050505050908060030154908060040154908060050154908060060180546106cc90612112565b80601f01602080910402602001604051908101604052809291908181526020018280546106f890612112565b80156107455780601f1061071a57610100808354040283529160200191610745565b820191906000526020600020905b81548152906001019060200180831161072857829003601f168201915b50505050509080600701549080600801805461076090612112565b80601f016020809104026020016040519081016040528092919081815260200182805461078c90612112565b80156107d95780601f106107ae576101008083540402835291602001916107d9565b820191906000526020600020905b8154815290600101906020018083116107bc57829003601f168201915b5050505050905089565b6000818152600160205260409020600481015442111561085f5760405162461bcd60e51b815260206004820152603160248201527f43616d706169676e20686173206578706972656420616e642063616e6e6f742060448201527030b1b1b2b83a103237b730ba34b7b7399760791b6064820152608401610278565b600981018054600180820183556000928352602080842090920180546001600160a01b03191633179055600a840180549182018155835290822034910181905582546040519192916001600160a01b039091169083908381818185875af1925050503d80600081146108ed576040519150601f19603f3d011682016040523d82523d6000602084013e6108f2565b606091505b505090508061093a5760405162461bcd60e51b81526020600482015260146024820152732330b4b632b2103a379039b2b7321022ba3432b960611b6044820152606401610278565b8183600501600082825461094e9190612394565b90915550503360009081526002602052604090205460ff1661099f57600183600701600082825461097f9190612394565b9091555050336000908152600260205260409020805460ff191660011790555b604051828152339085907f0b5b4c52969ff7329ecf7ee536409fda87812b15a8622bc6e8cdeab3aee14a269060200160405180910390a350505050565b60606000805b600354811015610a305760008181526001602052604081206008018054610a0890612112565b90501115610a1e5781610a1a81612362565b9250505b80610a2881612362565b9150506109e2565b5060008167ffffffffffffffff811115610a4c57610a4c611ad6565b604051908082528060200260200182016040528015610aa157816020015b610a8e60405180606001604052806000815260200160608152602001606081525090565b815260200190600190039081610a6a5790505b5090506000805b600354811015610ffc5760008181526001602052604081206008018054610ace90612112565b80601f0160208091040260200160405190810160405280929190818152602001828054610afa90612112565b8015610b475780601f10610b1c57610100808354040283529160200191610b47565b820191906000526020600020905b815481529060010190602001808311610b2a57829003601f168201915b50505050509050600081511115610fe957600081604051610b689190612255565b908152602001604051809103902060405180606001604052908160008201548152602001600182018054610b9b90612112565b80601f0160208091040260200160405190810160405280929190818152602001828054610bc790612112565b8015610c145780601f10610be957610100808354040283529160200191610c14565b820191906000526020600020905b815481529060010190602001808311610bf757829003601f168201915b5050505050815260200160028201805480602002602001604051908101604052809291908181526020016000905b82821015610fb5576000848152602090819020604080516101608101909152600b850290910180546001600160a01b031682526001810180549293919291840191610c8c90612112565b80601f0160208091040260200160405190810160405280929190818152602001828054610cb890612112565b8015610d055780601f10610cda57610100808354040283529160200191610d05565b820191906000526020600020905b815481529060010190602001808311610ce857829003601f168201915b50505050508152602001600282018054610d1e90612112565b80601f0160208091040260200160405190810160405280929190818152602001828054610d4a90612112565b8015610d975780601f10610d6c57610100808354040283529160200191610d97565b820191906000526020600020905b815481529060010190602001808311610d7a57829003601f168201915b50505050508152602001600382015481526020016004820154815260200160058201548152602001600682018054610dce90612112565b80601f0160208091040260200160405190810160405280929190818152602001828054610dfa90612112565b8015610e475780601f10610e1c57610100808354040283529160200191610e47565b820191906000526020600020905b815481529060010190602001808311610e2a57829003601f168201915b5050505050815260200160078201548152602001600882018054610e6a90612112565b80601f0160208091040260200160405190810160405280929190818152602001828054610e9690612112565b8015610ee35780601f10610eb857610100808354040283529160200191610ee3565b820191906000526020600020905b815481529060010190602001808311610ec657829003601f168201915b5050505050815260200160098201805480602002602001604051908101604052809291908181526020018280548015610f4557602002820191906000526020600020905b81546001600160a01b03168152600190910190602001808311610f27575b50505050508152602001600a8201805480602002602001604051908101604052809291908181526020018280548015610f9d57602002820191906000526020600020905b815481526020019060010190808311610f89575b50505050508152505081526020019060010190610c42565b5050505081525050848481518110610fcf57610fcf6123a7565b60200260200101819052508280610fe590612362565b9350505b5080610ff481612362565b915050610aa8565b50909392505050565b80516020818301810180516000825292820191909301209152805460018201805491929161103290612112565b80601f016020809104026020016040519081016040528092919081815260200182805461105e90612112565b80156110ab5780601f10611080576101008083540402835291602001916110ab565b820191906000526020600020905b81548152906001019060200180831161108e57829003601f168201915b5050505050905082565b6060600060035467ffffffffffffffff8111156110d4576110d4611ad6565b60405190808252806020026020018201604052801561116b57816020015b61115860405180610160016040528060006001600160a01b03168152602001606081526020016060815260200160008152602001600081526020016000815260200160608152602001600081526020016060815260200160608152602001606081525090565b8152602001906001900390816110f25790505b50905060005b600354811015611500576000818152600160208181526040928390208351610160810190945280546001600160a01b031684529182018054918401916111b690612112565b80601f01602080910402602001604051908101604052809291908181526020018280546111e290612112565b801561122f5780601f106112045761010080835404028352916020019161122f565b820191906000526020600020905b81548152906001019060200180831161121257829003601f168201915b5050505050815260200160028201805461124890612112565b80601f016020809104026020016040519081016040528092919081815260200182805461127490612112565b80156112c15780601f10611296576101008083540402835291602001916112c1565b820191906000526020600020905b8154815290600101906020018083116112a457829003601f168201915b505050505081526020016003820154815260200160048201548152602001600582015481526020016006820180546112f890612112565b80601f016020809104026020016040519081016040528092919081815260200182805461132490612112565b80156113715780601f1061134657610100808354040283529160200191611371565b820191906000526020600020905b81548152906001019060200180831161135457829003601f168201915b505050505081526020016007820154815260200160088201805461139490612112565b80601f01602080910402602001604051908101604052809291908181526020018280546113c090612112565b801561140d5780601f106113e25761010080835404028352916020019161140d565b820191906000526020600020905b8154815290600101906020018083116113f057829003601f168201915b505050505081526020016009820180548060200260200160405190810160405280929190818152602001828054801561146f57602002820191906000526020600020905b81546001600160a01b03168152600190910190602001808311611451575b50505050508152602001600a82018054806020026020016040519081016040528092919081815260200182805480156114c757602002820191906000526020600020905b8154815260200190600101908083116114b3575b5050505050815250508282815181106114e2576114e26123a7565b602002602001018190525080806114f890612362565b915050611171565b50919050565b6060600060035467ffffffffffffffff81111561152557611525611ad6565b60405190808252806020026020018201604052801561158a57816020015b6115776040518060800160405280606081526020016060815260200160006001600160a01b03168152602001600081525090565b8152602001906001900390816115435790505b5090506000805b6003548110156119745760008181526001602052604090206003810154600582015410611961576000805b848110156117e357826008016040516020016115d891906123bd565b60405160208183030381529060405280519060200120868281518110611600576116006123a7565b60200260200101516000015160405160200161161c9190612255565b60405160208183030381529060405280519060200120036117d1576001915085818151811061164d5761164d6123a7565b602002602001015160600151836005015411156117cc57604051806080016040528084600801805461167e90612112565b80601f01602080910402602001604051908101604052809291908181526020018280546116aa90612112565b80156116f75780601f106116cc576101008083540402835291602001916116f7565b820191906000526020600020905b8154815290600101906020018083116116da57829003601f168201915b5050505050815260200184600101805461171090612112565b80601f016020809104026020016040519081016040528092919081815260200182805461173c90612112565b80156117895780601f1061175e57610100808354040283529160200191611789565b820191906000526020600020905b81548152906001019060200180831161176c57829003601f168201915b505050918352505084546001600160a01b03166020820152600585015460409091015286518790839081106117c0576117c06123a7565b60200260200101819052505b6117e3565b806117db81612362565b9150506115bc565b508061195f57604051806080016040528083600801805461180390612112565b80601f016020809104026020016040519081016040528092919081815260200182805461182f90612112565b801561187c5780601f106118515761010080835404028352916020019161187c565b820191906000526020600020905b81548152906001019060200180831161185f57829003601f168201915b5050505050815260200183600101805461189590612112565b80601f01602080910402602001604051908101604052809291908181526020018280546118c190612112565b801561190e5780601f106118e35761010080835404028352916020019161190e565b820191906000526020600020905b8154815290600101906020018083116118f157829003601f168201915b505050918352505083546001600160a01b0316602082015260058401546040909101528551869086908110611945576119456123a7565b6020026020010181905250838061195b90612362565b9450505b505b508061196c81612362565b915050611591565b5060008167ffffffffffffffff81111561199057611990611ad6565b6040519080825280602002602001820160405280156119f557816020015b6119e26040518060800160405280606081526020016060815260200160006001600160a01b03168152602001600081525090565b8152602001906001900390816119ae5790505b50905060005b82811015611a4d57838181518110611a1557611a156123a7565b6020026020010151828281518110611a2f57611a2f6123a7565b60200260200101819052508080611a4590612362565b9150506119fb565b509392505050565b828054828255906000526020600020908101928215611a955760005260206000209182015b82811115611a95578254825591600101919060010190611a7a565b50611aa1929150611aa5565b5090565b5b80821115611aa15760008155600101611aa6565b80356001600160a01b0381168114611ad157600080fd5b919050565b634e487b7160e01b600052604160045260246000fd5b600082601f830112611afd57600080fd5b813567ffffffffffffffff80821115611b1857611b18611ad6565b604051601f8301601f19908116603f01168101908282118183101715611b4057611b40611ad6565b81604052838152866020858801011115611b5957600080fd5b836020870160208301376000602085830101528094505050505092915050565b600080600080600080600060e0888a031215611b9457600080fd5b611b9d88611aba565b9650602088013567ffffffffffffffff80821115611bba57600080fd5b611bc68b838c01611aec565b975060408a0135915080821115611bdc57600080fd5b611be88b838c01611aec565b965060608a0135955060808a0135945060a08a0135915080821115611c0c57600080fd5b611c188b838c01611aec565b935060c08a0135915080821115611c2e57600080fd5b50611c3b8a828b01611aec565b91505092959891949750929550565b600060208284031215611c5c57600080fd5b5035919050565b604080825283519082018190526000906020906060840190828701845b82811015611ca55781516001600160a01b031684529284019290840190600101611c80565b5050508381038285015284518082528583019183019060005b81811015611cda57835183529284019291840191600101611cbe565b5090979650505050505050565b60005b83811015611d02578181015183820152602001611cea565b50506000910152565b60008151808452611d23816020860160208601611ce7565b601f01601f19169290920160200192915050565b6001600160a01b038a16815261012060208201819052600090611d5c8382018c611d0b565b90508281036040840152611d70818b611d0b565b90508860608401528760808401528660a084015282810360c0840152611d968187611d0b565b90508460e0840152828103610100840152611db18185611d0b565b9c9b505050505050505050505050565b600081518084526020808501945080840160005b83811015611dfa5781516001600160a01b031687529582019590820190600101611dd5565b509495945050505050565b600081518084526020808501945080840160005b83811015611dfa57815187529582019590820190600101611e19565b600081518084526020808501808196508360051b8101915082860160005b85811015611f53578284038952815180516001600160a01b03168552610160868201518188880152611e8782880182611d0b565b91505060408083015187830382890152611ea18382611d0b565b925050506060808301518188015250608080830151818801525060a080830151818801525060c08083015187830382890152611edd8382611d0b565b9250505060e08083015181880152506101008083015187830382890152611f048382611d0b565b925050506101208083015187830382890152611f208382611dc1565b925050506101408083015192508682038188015250611f3f8183611e05565b9a87019a9550505090840190600101611e53565b5091979650505050505050565b60006020808301818452808551808352604092508286019150828160051b87010184880160005b83811015611fe357603f19898403018552815160608151855288820151818a870152611fb582870182611d0b565b91505087820151915084810388860152611fcf8183611e35565b968901969450505090860190600101611f87565b509098975050505050505050565b60006020828403121561200357600080fd5b813567ffffffffffffffff81111561201a57600080fd5b61202684828501611aec565b949350505050565b8281526040602082015260006120266040830184611d0b565b60208152600061205a6020830184611e35565b9392505050565b60006020828403121561207357600080fd5b61205a82611aba565b60006020808301818452808551808352604092508286019150828160051b87010184880160005b83811015611fe357603f198984030185528151608081518186526120c982870182611d0b565b915050888201518582038a8701526120e18282611d0b565b838a01516001600160a01b0316878b01526060938401519390960192909252505093860193908601906001016120a3565b600181811c9082168061212657607f821691505b60208210810361150057634e487b7160e01b600052602260045260246000fd5b601f82111561219057600081815260208120601f850160051c8101602086101561216d5750805b601f850160051c820191505b8181101561218c57828155600101612179565b5050505b505050565b815167ffffffffffffffff8111156121af576121af611ad6565b6121c3816121bd8454612112565b84612146565b602080601f8311600181146121f857600084156121e05750858301515b600019600386901b1c1916600185901b17855561218c565b600085815260208120601f198616915b8281101561222757888601518255948401946001909101908401612208565b50858210156122455787850151600019600388901b60f8161c191681555b5050505050600190811b01905550565b60008251612267818460208701611ce7565b9190910192915050565b81810361227c575050565b6122868254612112565b67ffffffffffffffff81111561229e5761229e611ad6565b6122ac816121bd8454612112565b6000601f8211600181146122e057600083156122c85750848201545b600019600385901b1c1916600184901b178455612345565b600085815260209020601f19841690600086815260209020845b8381101561231a57828601548255600195860195909101906020016122fa565b50858310156123385781850154600019600388901b60f8161c191681555b50505060018360011b0184555b5050505050565b634e487b7160e01b600052601160045260246000fd5b6000600182016123745761237461234c565b5060010190565b8181038181111561238e5761238e61234c565b92915050565b8082018082111561238e5761238e61234c565b634e487b7160e01b600052603260045260246000fd5b60008083546123cb81612112565b600182811680156123e357600181146123f857612427565b60ff1984168752821515830287019450612427565b8760005260208060002060005b8581101561241e5781548a820152908401908201612405565b50505082870194505b5092969550505050505056fea26469706673582212207e1f36bd5057835ef66b479a6f2d065a2edc08844d59a0dc93995baff04a1ff664736f6c63430008110033",
  "linkReferences": {},
  "deployedLinkReferences": {}
}